:020000020000FC
:040000000C9412004A
:100008000C942C00991B79E004C0991F961708F0EE
:10001800961B881F7A95C9F78095089508E00EBF4A
:100028000FEF0DBF00E00093C00008E00093C1008F
:1000380006E00093C20007E60093C40000E00093C6
:10004800C5000CE00093690002E00DBB7894FFCF77
:100058001395143609F017C00395802F0AE0602F16
:100068000E940600482F20E3420F0E943F004A2FBB
:10007800420F0E943F003F934093C6003091C0005A
:0800880035FFFCCF3F911895F4
:00000001FF
